:020000040800F2
:10000000280700207D010008CD1600082D150008E6
:1000100000000000000000000000000000000000E0
:10002000000000000000000000000000171700089A
:100030000000000000000000151700081917000854
:100040008F0100088F0100088F0100088F01000850
:100050008F0100088F0100088F0100088F01000840
:100060008F0100088F0100088F0100088F01000830
:100070008F0100088F0100088F010008ED170008AC
:100080008F0100088F0100088F0100088F01000810
:100090008F0100088F0100088F0100088F01000800
:1000A0008F0100088F0100088F0100088F010008F0
:1000B0008F0100088F0100088F0100088F010008E0
:1000C00000F002F800F04BF80CA030C808382418F3
:1000D0002D18A246671EAB4654465D46AC4201D180
:1000E00000F03DF87E460F3E0FCCB6460126334267
:1000F00000D0FB1AA246AB4633431847541C0000FD
:10010000741C0000103A02D378C878C1FAD852079C
:1001100001D330C830C101D504680C6070470000BD
:100120000023002400250026103A01D378C1FBD813
:10013000520700D330C100D50B60704710B503687B
:100140001B0A01D380231943E42902D100F05AF895
:1001500010BD002010BD1FB51FBD10B510BD00F0B3
:100160005FFA1146FFF7F7FF01F0A2FD00F077FA02
:1001700003B4FFF7F2FF03BC01F05BFD07488047C3
:1001800007480047FEE7FEE7FEE7FEE7FEE7FEE77B
:1001900004480549054A064B7047000091170008BE
:1001A000C1000008280100202807002028030020A3
:1001B0002803002070474343514330B55C18010CBD
:1001C000130C0D4692B25D4380B251432C19054683
:1001D00055430A0C09044D1962415843010C0004AF
:1001E0004019514130BD00000FB4054910B503AAB4
:1001F000029800F0E5F910BC08BC04B018470000F4
:100200000C000020F7B5D21D0025D20815A6D2009B
:10021000F52905CA11D0002A05DA00214042914192
:1002200011A60A4608E0009909688B0701D50FA6B8
:1002300002E0490701D50EA601251146009F0024C2
:10024000243704E000F026F930323A55641C0246A7
:100250000A43F7D12B4632462146009800F057F961
:10026000FEBD0000000000002D0000002B0000007B
:1002700020000000F8B50F460546002028622846F9
:10028000E9688847002852D0252802D06A68A96802
:1002900049E0E9682846002688476C2804460AD0C9
:1002A000682C08D04C2C37D06A2C33D0742C33D027
:1002B0007A2C31D015E0E968064628468847B042D6
:1002C000044608D16C2E25D00126B6022846E968DE
:1002D0008847044605E06C2E02D0FF26013600E078
:1002E0004026002C23D020464138192803D801206D
:1002F000C002064320343A4628462E602146FFF7C6
:100300001DFF00280CD0012808D0FF1DFF08FF00AA
:100310000837B4E78026D9E70026D7E73F1DAEE7C8
:100320006A682046A9689047286A401CA6E7286AA0
:10033000F8BD002203098B422CD3030A8B4211D350
:1003400000239C464EE003460B433CD40022430866
:100350008B4231D303098B421CD3030A8B4201D356
:1003600094463FE0C3098B4201D3CB01C01A5241EE
:1003700083098B4201D38B01C01A524143098B423E
:1003800001D34B01C01A524103098B4201D30B0127
:10039000C01A5241C3088B4201D3CB00C01A52414C
:1003A00083088B4201D38B00C01A524143088B4211
:1003B00001D34B00C01A5241411A00D201465241AA
:1003C000104670475DE0CA0F00D04942031000D3C9
:1003D0004042534000229C4603098B422DD3030A1E
:1003E0008B4212D3FC22890112BA030A8B420CD32E
:1003F000890192118B4208D3890192118B4204D357
:1004000089013AD0921100E08909C3098B4201D3D6
:10041000CB01C01A524183098B4201D38B01C01A10
:10042000524143098B4201D34B01C01A5241030987
:100430008B4201D30B01C01A5241C3088B4201D336
:10044000CB00C01A524183088B4201D38B00C01AE3
:100450005241D9D243088B4201D34B00C01A5241BA
:10046000411A00D20146634652415B10104601D347
:100470004042002B00D54942704763465B1000D3D1
:10048000404201B50020C046C04602BD70477047DB
:10049000704770470B4670B50246890780080843CD
:1004A00019469D08141AA94125090807054308099A
:1004B0002C194841250A01060D43010A2C19414116
:1004C000200C0D0428430D0C00194D41002140194A
:1004D0004D41C00869070843E908840F8D00254392
:1004E000840024184D4124196D41121BAB4107E0D3
:1004F0000925ED432C11521963410024401C614130
:100500001C460A250026551BB441F1D270BDFFB52B
:1005100004460D4681B0243000902168880604D539
:100520001022E0699143216000E00120A84201DD32
:10053000471B00E000270498A1697A191018081ACF
:10054000A0612078C00602D42046C046C0460026DE
:1005500008E003986268A168805D9047206A401CAB
:10056000761C206204988642F3DB2078C0060AD508
:100570002046C046C04606E06268A1683020904729
:10058000206A401C206238467F1E0028F4DC07E009
:1005900000986268A168405D9047206A401C206214
:1005A00028466D1E0028F3DC2046C046C046207851
:1005B000000602D5022005B0F0BD0120FBE70000D7
:1005C000084B70B50D467B4400F013F804462846EE
:1005D00000F022F8002802D00020C04370BD204661
:1005E00070BD0000CF16000001694A1C0261087846
:1005F000704700B58FB00291002105910549019324
:1006000079440391114604906846FFF733FE0FB01A
:1006100000BD0000E5FFFFFFC06880210840704773
:10062000754600F025F8AE46050069465346C008F9
:10063000C000854618B020B5FFF7AAFD60BC0027B2
:100640004908B6460026C0C5C0C5C0C5C0C5C0C59E
:10065000C0C5C0C5C0C5403D49008D46704710B5F6
:100660000446C046C0462046FFF782FD10BD00008C
:1006700000487047C8000020F8B5002393E02246E8
:1006800001249C40A44622407ED04C68022C01D01C
:10069000122C0CD1DC08A40027183C6A5D07ED0E73
:1006A0000F26AE40B4430E69AE4026433E62056855
:1006B0005E000324B4400F79A543BF07BF0FB740C6
:1006C0002F4307604D68012D05D0022D03D0112D59
:1006D00001D0122D0ED18568CF68A543B7402F43B6
:1006E000876047686546AF430D79ED06ED0F9D4085
:1006F0003D434560C568A5438C68B4402C43C46045
:100700004C68E4004ED52B4CA56901263543A56104
:10071000A4699D0834400094274CAD002F19BC6893
:100720009D072E0F0F25B540AC430925ED06A842C5
:1007300001D1002514E0214DA84201D101250FE08F
:100740001F4DA84201D102250AE01E4DA84201D149
:10075000032505E01C4DA84201D1042500E0052534
:10076000B5402543BD60194C25684E689543F60396
:1007700000D51543256065684E689543B60300D5DE
:1007800015436560A56800E00CE04E689543F602ED
:1007900000D51543A560E5684E689543B60200D5BF
:1007A0001543E5605B1C0A681446DA4000D066E732
:1007B000F8BD0000001002400000014000040048A5
:1007C00000080048000C00480010004800040140E8
:1007D0000069084000D00120704742694A404261E8
:1007E0007047002A01D08161704781627047000024
:1007F00001480068704700001000002002480168AE
:10080000491C0160704700001000002010B5064828
:100810000168102211430160002000F007F800F089
:1008200017F8002010BD00000020024010B504465B
:1008300000F078F97D21C900FFF77BFD00F0C6FBD1
:1008400000222146501E00F02FF8002010BD0000AD
:1008500008B50F4881690122114381618169114006
:100860000091C26901040A43C261C06900220840C4
:1008700000901146501F00F017F800221146901EFC
:1008800000F012F800221146501E00F00DF808BDCD
:1008900000100240C106C90E0120884001490860CD
:1008A0007047000000E100E010B500F011FF10BD3E
:1008B000F8B504460068434DC00352D5E8690026E8
:1008C000C00007D4E96928040143E961E9690140EE
:1008D000012600913C480168C90510D401688215C1
:1008E00011430160FFF784FF074604E0FFF780FF34
:1008F000C01B642824D834480068C005F6D5286A8F
:1009000003273F02384020D06168394081421CD023
:10091000286A2A6AB843012109040A432A622A6A1A
:100920008A432A622862C0070FD0FFF761FF009058
:1009300008E0FFF75DFF0099411A2448814201D980
:100940000320F8BD286A8007F3D5286A6168B84398
:1009500008432862002E04D0E86901210907884372
:10096000E8612078C00705D0286BA1688008800066
:10097000084328632078800706D5286B03210904E3
:100980008843E168084328632078800605D5286BF2
:10099000102188432169084328632068800305D516
:1009A000286B80218843A16908432863208840057B
:1009B00005D5286B402188436169084328630020DE
:1009C000F8BD0000001002400070004088130000D5
:1009D000F8B505464E480E460068C007C00FB04245
:1009E0000AD24B4801684908490031430160006858
:1009F000C007C00FB04270D12878464C800705D59B
:100A00006068F0218843A968084360602878C007BF
:100A100053D06868012817D0022818D0032819D0AD
:100A200021688907002958DA61688908890001432B
:100A30006160FFF7DDFE69680746012913D00229CE
:100A40001DD0032927D034E021688903EAE7216813
:100A50008901E7E7616BC903E4E7FFF7C9FEC11B42
:100A60002D48814223D860680007800F0128F4D107
:100A700023E0FFF7BDFEC11B2748814217D86068FD
:100A80000007800F0228F4D117E0FFF7B1FEC11B69
:100A9000214881420BD860680007800F0328F4D1F9
:100AA0000BE0FFF7A5FEC11B1B48814201D90320C3
:100AB000F8BD60680007800FF3D115480168C907C9
:100AC000C90FB1420BD9016849084900314301609F
:100AD0000068C007C00FB04201D00120F8BD2878DF
:100AE000400706D56068072109028843E968084382
:100AF000606000F02DF86168084A0906090F515C32
:100B0000C840074908600020FFF790FE0020F8BDAC
:100B1000002002400010024088130000381D000829
:100B200014000020014800687047000014000020F5
:100B30000448054900684968044A4905490F515C61
:100B4000C84070471400002000100240481D0008F3
:100B500030B516A30FCB89B06C460FC417A30FCBCB
:100B60000FC41A494A680C20144604401848042C43
:100B700005D0184B082C04D00C2C00D1184609B015
:100B800030BD9402240F6D462C5DC96A04AD09077F
:100B9000090FD203695C920F022A02D0032A00D106
:100BA0001846FFF7C6FB6043E9E7000002030405AF
:100BB000060708090A0B0C0D0E0F101001020304A2
:100BC00005060708090A0B0C0D0E0F100010024055
:100BD00000127A00006CDC02FEB504460078F04E8C
:100BE000F04DC00748D068680007800F01281FD06B
:100BF00068680007800F022804D16868C003800F6E
:100C0000022815D06168012919D00120800400292B
:100C100001D0052917D02968B1432960296881438B
:100C20002960606800281BD0FFF7E2FD074613E04B
:100C30002868800320D56068002876D01CE02868EA
:100C400030432860EDE7296801432960F7E7FFF7A3
:100C5000CFFDC01B642869D828688003F7D50BE056
:100C6000FFF7C6FD074604E0FFF7C2FDC01B64287E
:100C7000F1D828688003F7D4207880073ED56868CB
:100C80000007800F14D068680007800F022804D185
:100C90006868C003800F01280AD0E068002828682F
:100CA0001DD0012108432860FFF7A2FD07460BE095
:100CB000286880070BD5E068012836D107E0FFF7E8
:100CC00097FDC01B0228C6D828688007F7D528687A
:100CD000F82188432169C900084328600EE04008D4
:100CE00040002860FFF784FD074604E0FFF780FD21
:100CF000C01B0228AFD828688007F7D420780007E7
:100D000024D5E0690028686A11D00121084368628F
:100D1000FFF76EFD074604E0FFF76AFDC01B0228DF
:100D200099D8686A8007F7D510E036E1D1E040082D
:100D300040006862FFF75CFD074604E0FFF758FDDE
:100D4000C01B022887D8686A8007F7D42078042758
:100D50004007002861DA00200190E869C00008D44B
:100D6000E969B8060143E961E969014001200091A0
:100D700001908D480168C90511D40168821511439D
:100D80000160FFF735FD009005E0FFF731FD0099A8
:100D9000401A642897D884480068C005F5D5A06833
:100DA00001280AD0002801D0052811D0286A40085F
:100DB00040002862286AB84302E0286A01210843FB
:100DC0002862A068002812D0FFF712FD00900AE008
:100DD000286A38432862F0E7FFF70AFD0099411AB4
:100DE0007248814275D8286A8007F5D50DE0FFF773
:100DF000FFFC009006E0FFF7FBFC0099411A6B48EE
:100E0000814266D8286A8007F5D40198002804D06A
:100E1000E969012000078143E9612078C00635D5E2
:100E2000606901280CD0401D686B24D0384368638A
:100E3000686B400840006863FFF7DAFC074622E071
:100E4000686B38436863686B012108436863FFF788
:100E5000CFFC074604E0FFF7CBFCC01B022838D8C4
:100E6000686B8007F7D5686BF8218843A169C900D2
:100E7000084368630AE0B8436863F4E7FFF7B8FC27
:100E8000C01B022825D8686B8007F7D4207880061D
:100E900037D568680007800F032813D068680007FB
:100EA000800F022804D16868C003800F032809D08E
:100EB000206A0028686B16D030436863FFF798FCFF
:100EC00006460CE0686BC0031BD5206A012864D17C
:100ED00017E05BE0FFF78CFC801B022856D8686B9C
:100EE000C003F7D50DE0B0436863FFF781FC064609
:100EF00004E0FFF77DFC801B022847D8686BC00325
:100F0000F7D4606A002846D069680907890F02296A
:100F100043D0012636060228286805D0B043286051
:100F2000FFF766FC044633E0B0432860FFF760FC3F
:100F3000074604E0FFF75CFCC01B022826D828689F
:100F40008001F7D4E86A216B000900010843E862D8
:100F5000A16AE06A084369687B22D203914308438F
:100F60006860286830432860FFF742FC044604E0CC
:100F7000FFF73EFC001B022808D828688001F7D53F
:100F800009E0FFF735FC001B022801D90320FEBD54
:100F900028688001F5D40020FEBD0120FEBD0000C0
:100FA00000000100001002400070004088130000A3
:100FB000042204490428086902D09043086170475C
:100FC0001043FBE700E000E070470000094910B55E
:100FD000401E884201D9012010BD074C60610321E9
:100FE000081F00F075FB0020A06107202061002091
:100FF00010BD0000FFFFFF0000E000E010B5FFF7AC
:10100000E3FF10BD7047704770B5040005D025465A
:101010002035687F002802D006E0012070BD002046
:101020002877204600F00AF802206877211D206802
:1010300000F0E4FB01206877002070BD00B5006877
:101040000121890787B088421BD10F48C16901225D
:101050001143C161C0690221104005900820009031
:101060000320019102910491039069460748FFF71C
:1010700003FB002201210F20FFF716FC0F20FFF7D2
:1010800009FC07B000BD0000001002400004004849
:1010900070B51D4C2078010612D41C4E1C4D410623
:1010A0000FD58021084320700421284600F0BEF9A6
:1010B000A0602868016A314001622868016A016203
:1010C00070BD00214020A16020702868026A114B89
:1010D0001A4207D1026A9B101A4203D102685208D1
:1010E00052000260286841622868016A314001624A
:1010F0002868016A202211430162286801680122E0
:101100001143016070BD0000000000205FFF00007F
:101110001800002011110000F8B5064604462036DC
:10112000307F0D4601283DD00120307702207077B6
:10113000002A39D0042A46D0082A57D02B68297BA8
:1011400020689E468C466B68016A01221203914317
:101150000162C169026A03273F02B9431B020B43C4
:101160000F2109038B4361460907090C1943052325
:101170005B039A4373460A273B401B031343C16139
:1011800003622068C169032292029143C161206811
:10119000C169AA6812021143C16101207077002061
:1011A0003077F8BD0220F8BDEB6806CD083D206819
:1011B00000F07AFB206882690C218A4382612068F2
:1011C0008169AA680FE0EB6806CD083D206800F051
:1011D00097FB20688269032189028A438261206823
:1011E0008169AA68120211438161D6E788CD287906
:1011F00021688446086AFF22013290430862C86968
:101200000A6A800880003843F027B84367463F07E2
:101210003F0E07430520400282430A200340180284
:101220001043CF6108622068C1690C229143C161FB
:101230002068C1692A68AEE710B502680446002933
:1012400006D0042907D0082914D00C2907D114E0AE
:10125000D068022301E0D06804231843D060012243
:10126000206800F015FB206801680122114301602D
:10127000002010BDD0680823EFE7D0681023ECE70A
:1012800070B50446006801690025C9438907002933
:1012900015DBC168C943890711D4E91E016101202A
:1012A0002077206880698007204602D0FFF7F0FE93
:1012B00004E000F096F8204600F094F825772068C6
:1012C0000169C943490717D4C168C943490713D401
:1012D0000421C943016102202077206880698005CC
:1012E000800F204602D0FFF7D3FE04E000F079F82B
:1012F000204600F077F8257720680169C94309077F
:1013000016D4C168C943090712D40821C943016131
:10131000042020772068C0698007204602D0FFF7AC
:10132000B7FE04E000F05DF8204600F05BF825779A
:1013300020680169C943C90617D4C168C943C906F1
:1013400013D41021C9430161082020772068C069A7
:101350008005800F204602D0FFF79AFE04E000F0DF
:1013600040F8204600F03EF8257720680169C9431F
:10137000C90708D1C168C943C90704D1891E0161E1
:10138000204600F031F820680169C943090609D4F4
:10139000C168C943090605D48021C94301612046BB
:1013A000FFF730FE20680169C943490609D4C168C6
:1013B000C943490605D44021C9430161204600F0D4
:1013C00058F820680169C943890609D4C168C9432E
:1013D000890605D42021C94301612046FFF713FE89
:1013E00070BD7047704700000D4910B588420ED19E
:1013F0000C4C207801060AD4400608D50AA0FEF756
:10140000F3FE2078C143890602D0401C207010BD35
:101410008021084320700020C043A06010BD000060
:101420001800002000000020320D0A0010B503460D
:1014300020331C7F0022012C0AD001241C770029B4
:1014400008D0042909D008290AD00C290DD10AE0B6
:10145000022010BD0068426B07E00068826B04E068
:101460000068C26B01E00068026C0020187710462B
:1014700010BD704770B5040005D025466035687A08
:10148000002802D006E0012070BD0020287220460E
:1014900000F026F824206872206801684908490095
:1014A0000160204600F0E6FA0128EDD0606A0028CD
:1014B00002D0204600F03EFA206841680922D2029C
:1014C00091434160206881682A22914381602068AD
:1014D0000168012211430160204600F091FA70BDBD
:1014E00000B500680F4987B0884218D10E4882695C
:1014F000012189030A438261806908400590032025
:1015000040020090022001900020029003200390EE
:101510000120049009206946C006FFF7ADF807B026
:1015200000BD00000038014000100240FEE700004E
:1015300070B509260125124CF606002801D0657009
:1015400002E06078002805D001213046FFF740F91D
:10155000012806D001213046FFF73AF900280CD0C7
:101560000CE00A2000F070FB002060700121304682
:10157000FFF72EF9012802D000E06570002070BD51
:101580000000002010B50020FFF7D2FF002813D084
:10159000012811D1094C01022046FFF71EF9012252
:1015A00010212046FFF71DF94E2000F04DFB0022D0
:1015B00010212046FFF715F910BD00000008004873
:1015C00070B51B4886B04269012149040A43426153
:1015D00042690A400592426949000A4342614269F0
:1015E0000A400592426949000A4342614069312438
:1015F0000840104E24010590002221463046FFF796
:10160000F0F8009403200125002403900195694619
:1016100002943046FFF730F802200290092001942E
:10162000694600950394C006FFF726F806B070BD22
:1016300000100240000800487FB5154C0025A56049
:10164000012225619207A56122606160E060204669
:10165000FFF7DAFC002800D0FEE70126009502958E
:10166000042269460A4801960395FFF755FD0028B4
:1016700000D0FEE701202168C0430861042104482E
:10168000FFF7DAFD2068C1683143C1607FBD00000B
:101690001800002010B50C480A490160E1214902F8
:1016A000416000218160C16001618161C1610C22E2
:1016B000016242614162FFF7DDFE002800D0FEE7D3
:1016C00010BD0000003801405800002070470000A5
:1016D0008307FF22DB0E9A408907090E99400028F4
:1016E0000BDA0007000F0838830808489B00181819
:1016F000C36993430B43C3617047830804489B004D
:101700001B181868904308431860704700ED00E00C
:1017100000E400E07047704710B5FFF76FF8FFF77F
:101720006DFC10BD30B599B020200125002400903B
:10173000089509946846FFF74FFA002800D0FEE7A5
:1017400007200D9003200E900F94012110940DA8F6
:10175000FFF73EF9002800D0FEE711A81195139479
:10176000FFF7A6F8002800D0FEE7FFF7DBF97D21A0
:10177000C900FEF7DEFDFFF729FC0420FFF718FC87
:1017800000221146501EFFF78FF819B030BD00003F
:10179000124801680122114301604168104A11405A
:1017A000416001680F4A1140016001680122920402
:1017B0009143016041683F22120491434160C16A34
:1017C00009090901C162016B074A11400163416BBC
:1017D00049084900416300218160704700100240C0
:1017E0000CB8FF08FFFFF6FE2CFEFCFF10B5024808
:1017F000FFF746FD10BD000018000020F0B502689C
:101800001D4B0124A4071D4D984203D0A04201D0D6
:10181000A84203D17026B2434E683243184E194F86
:1018200098420DD0A0420BD0A84209D0164CA0423D
:1018300006D0B04204D0B84202D0144CA04204D129
:1018400003242402A243CC6822438024A2434C698F
:10185000224302608A68C2620A688262984206D0A5
:10186000B04204D0B84202D0084A904201D109697E
:10187000016301214161F0BD002C014000040040E2
:101880000040014000440140002000400048014069
:1018900010B50123046A8B409C430462036A8A40AA
:1018A0001343036210BD000070B5046A640864004D
:1018B00004628469056A0F4EB04209D00126B6075A
:1018C000B04205D00C4EB04202D00C4EB04202D114
:1018D000A408A40000E001221443F02294431A0754
:1018E000120E0A2322439D4319402943826101625B
:1018F00070BD0000002C0140000400400040014089
:1019000070B5046A1025AC4304628569046A032635
:101910003602B54312022A430F252D031B071B0C69
:10192000AA431343A0220901944311402143836138
:10193000016270BD10B5818CC90707D001684A6883
:1019400001235B049A43836A1A434A60818C8907A6
:1019500007D501684A6801231B049A43C36A1A43E6
:101960004A60818C490707D501684A6801239B04B6
:101970009A43036B1A434A60818C090707D50168B3
:101980004A680123DB039A43436B1A434A60818C04
:10199000C90607D50268916801231B039943836B2D
:1019A00019439160818C890607D501688A680123F3
:1019B0005B039A43C36B1A438A60818C490612D534
:1019C00003685A6801210905046C8A4322435A605E
:1019D000026C8A4207D10268516803235B05994370
:1019E000436C19435160818C090607D501684A6828
:1019F0000123DB04806C9A4302434A6010BD00005F
:101A0000F8B500260446C666FEF7F2FE05461649FE
:101A10002068884202D0154988421DD10068144FC1
:101A2000000709D501212B460022490520460097D1
:101A300000F0CEF800280DD12068006840070BD5D3
:101A400001212B46002289052046009700F0C0F8AE
:101A5000002801D00320F8BD202060346072A072FD
:101A600026720020F8BD000000380140004400400C
:101A7000FFFFFF01F8B504462369A268E5691A4330
:101A8000636910202B43002125681A432B680E46FA
:101A9000474F3B4013432B6023685A6803252D03AF
:101AA000AA43E5682A435A60236AA26925681A4353
:101AB000AB680B273F02BB431343AB603D4F256828
:101AC0003D4B0203BD420AD11B6B9B079B0F20D0ED
:101AD000012B14D0022B14D0032B1BD10DE0374F58
:101AE000BD4210D11B6B03273F043B4011D09B1A12
:101AF00005D09B1A05D093420CD102200AE00420A5
:101B000008E0082006E02E4B9D4202D02D4B9D425E
:101B100000D100200123E769DB039F4222D1002886
:101B20000CD002280DD0042813D0082817D0012685
:101B30000A0912010807400F10432EE0FEF7F8FFD4
:101B400009E06168204A48088018FEF7F2FB81B27C
:101B5000EEE7FEF7FDFF616840004A08F4E76168C0
:101B60004808F1E7002808D0022809D004280CD042
:101B7000082815D001263046F8BDFEF7D9FF06E04B
:101B80006168124A480880180DE0FEF7E1FF6168BD
:101B90004A088018FEF7CDFB80B22168C860EAE7EA
:101BA00061684808C018FEF7C4FB80B2E860E2E74D
:101BB000F369FFEF0038014000100240004400408C
:101BC00000480040004C00400024F40000127A005D
:101BD000FFB581B017460E4604460A9D1DE0681CFD
:101BE0001BD0002D05D0FEF703FE0499401AA84231
:101BF00013D920680168FF22A13291430160206857
:101C00008168490849008160202060346072A072B8
:101C100000202072032005B0F0BD2068C169304665
:101C2000884304D00020B842D9D00020F3E7012037
:101C3000F9E7704710B504460420FFF7B9F90148E9
:101C4000446010BD0000002070B500247D260546CC
:101C5000F60003E0304600F005F8641CAC42F9D30E
:101C600070BD000070B50A4C002365690949A2697E
:101C700049684843A1699142FCD0914201D2521A6D
:101C800001E06E1AB218D3180A468342F2D370BD2F
:101C900000E000E0000000200449CA695206FCD5BB
:101CA000024AC1B220321181704700000038014061
:101CB000FEF7ACFDFFF736FD3020FFF7BBFFFFF767
:101CC0007FFCFFF7E7FC00202F21C043FFF7B4FCA7
:101CD000012211020E48FEF784FD0EA0FEF784FAE1
:101CE0000025104CFFF74EFC20780106FAD580063F
:101CF000800E0022C10FD2430023FEF75CFAA268D7
:101D0000821869410B4608A0FEF76EFA2570E9E7D4
:101D10000008004873797374656D20737461727480
:101D2000210D0A0000000020484947483A256C6C04
:101D3000642075730D0A0000000000000000000020
:101D40000102030406070809000000000102030461
:101D5000701D0008000000201800000004010008A9
:101D6000881D00081800002010070000200100084E
:101D70000001000000000000000000000000000062
:081D80000000000000127A00CF
:04000005080000C12E
:00000001FF
